:020000022000DC
:1070000000000220757302005D7302005F730200CE
:1070100061730200637302006573020000000000E8
:107020000000000000000000000000006773020084
:1070300069730200000000006B7302006D730200B0
:107040005DC402006F73020085C60200CDD4020049
:10705000B1DA02006F73020009C502006F7302000B
:107060006F7302006F7302006F7302006F73020090
:107070006F7302006F7302006F7302006F73020080
:107080006F7302009D7E02006F7302006F73020037
:10709000397F02006F73020049A402006F7302007F
:1070A0006F7302006F7302006F7302006F73020050
:1070B0006F7302006F730200000000000000000008
:1070C0006F7302006F7302006F7302006F73020030
:1070D00005CD0200B5CA02006F7302006F73020093
:1070E0006F730200000000000000000000000000BC
:1070F000000000006F73020000000000E1CD0200FC
:10710000000000000000000000000000000000007F
:10711000000000000000000000000000000000006F
:10712000000000000000000000000000000000005F
:10713000000000000000000000000000000000004F
:10714000000000000000000000000000000000003F
:10715000000000000000000000000000000000002F
:10716000000000000000000000000000000000001F
:10717000000000000000000000000000000000000F
:1071800000000000000000000000000000000000FF
:1071900000000000000000000000000000000000EF
:1071A00000000000000000000000000000000000DF
:1071B00000000000000000000000000000000000CF
:1071C00000000000000000000000000000000000BF
:1071D00000000000000000000000000000000000AF
:1071E000000000000000000000000000000000009F
:1071F000000000000000000000000000000000008F
:10720000354936480A1A02D0072291438D4634493F
:1072100034480A1A06D00722914381F309880222D2
:1072200082F3148830483149314A00F044F831483B
:107230003149324A00F03FF831483249324A00F0D1
:107240003AF832483249334A00F035F83248334987
:10725000334A00F030F833483349344A00F02BF811
:1072600033483449344A00F026F83448344900227F
:1072700000F02CF833483449002200F027F8334856
:107280003349091A082902DB002202604160314AB1
:1072900090471F481F49884205D00268043003B454
:1072A000904703BCF7E700208646EC46002000210B
:1072B000294A9047FEE7884207D0521A05D0037842
:1072C00001300B700131013AF9D17047884202D088
:1072D00002700130FAE770470000022000F8012038
:1072E000000002200000022064870400FC2A002025
:1072F000602B0020D0730200D0730200ACE50200C6
:1073000064870400FC2A0020FC2A0020DCE602003E
:10731000DCE60200DCE60200DCE60200DCE602005D
:10732000DCE60200DCE60200DCE602006487040022
:10733000C8870400602B0020602B0020602B0020F9
:107340006839002068390020683900206839002039
:10735000684100209D730200F9920200FEE7FEE7FB
:10736000FEE7FEE7FEE7FEE7FEE7FEE7FEE7FEE7F5
:1073700000F002B8FFF7FCBF0F484FF00701884349
:1073800085460E4880470E48016841F4700101604F
:10739000BFF34F8FBFF36F8FFFF732BF09480A4922
:1073A0000A4A884207D0521A05D0037801300B7080
:1073B0000131013AF9D1704700000220D58702005F
:1073C00088ED00E0C8E60200E82A0020FC2A002040
:1073D0001FB50021039001AA44F20100CDE901117B
:1073E00000F004F805B05DF804FB000038B572B693
:1073F00004F0E6FA04F052F90028FBD1104B114CCE
:10740000114D1249E41AE408240444F0010004F088
:1074100091FAD5F8F030DB0700D500BE0C4944F0F6
:10742000020004F087FABFF34F8FEA68094B02F4B9
:10743000E0621343EB60BFF34F8F00BFFDE700BF77
:1074400028E6020068E6020000ED00E0DCE602004B
:10745000E8E602000400FA0510B561B1B2FBF3F4EE
:1074600003FB1424A4B244B9C0E9001484608281EF
:10747000C381204610BD0E20FCE70920FAE782B048
:1074800050E8022FC188B2EB324F4FF0000317BF14
:1074900092B241EA014142EA014104E04268B2EBA2
:1074A000324F08BF012340E80212002AE8D18DF8CC
:1074B00007309DF80730002B0CBF1120002002B0D0
:1074C000704737B550E8013F9DB2C489254484898F
:1074D000A54228BF2D1B0489A54202BFBFF32F8FF1
:1074E000002207E0C5EA030540E80154002CE9D179
:1074F0004FF001028DF803200193019A0A609DF874
:10750000031001F0FF0321B1006810FA82F003B00C
:1075100030BD1846FBE70A884B889A4209D150E8EB
:10752000012FC2EA024240E80123002BF7D10120DB
:1075300070470020704737B550E8023F1FFAA3F5A7
:10754000C488A54202BFBFF32F8F00220DE0C4897B
:1075500025448489A54228BF2D1BC3EA054540E880
:107560000254002CE8D14FF001028DF80320019362
:10757000019A0A609DF8031001F0FF0321B1006831
:1075800000EB124003B030BD1846FBE70A884B8879
:107590009A4209D150E8022FC2EA224240E802236F
:1075A000002BF7D1012070470020704701F01F0227
:1075B0004B090121914000EB830000F02AB801F053
:1075C0001F0301229A404B0900EB8300D14300F0D6
:1075D00038B84B0901F01F0150F82300C84000F0F3
:1075E0000100704710B5034653E8000F0A4643E810
:1075F000002494F0000FF7D110BD10B5034653E8F6
:10760000000F40EA010243E8002494F0000FF6D195
:1076100010BD10B5034653E8002F42EA010043E8CD
:10762000000494F0000FF6D110BD10B5034653E8E6
:10763000000F00EA010243E8002494F0000FF6D1A5
:1076400010BD10B5034653E8002F02EA010043E8DD
:10765000000494F0000FF6D110BD10B5034653E8B6
:10766000002F02EB010043E8000494F0000FF6D174
:1076700010BD10B5034653E8002FA2EB010043E80C
:10768000000494F0000FF6D110BD0121FFF7B5BF43
:107690000121FFF7BEBF0021FFF7C7BF10B590B1B2
:1076A000D0E9012301689B1ADBB20A60013BDBB21F
:1076B000FF2B026802D10020107110BD11684C1C14
:1076C00014600B70F2E70E20F7E737B5054600248B
:1076D0000DF107008DF8074000F03AFB2A686B684F
:1076E000116899420ED9481E106011F8013CEC68EF
:1076F000298A01FB0344AB6811791B1ADBB299425A
:1077000038BF13719DF8070000F046FB204603B018
:1077100030BD37B5054600230DF107000C468DF846
:10772000073000F015FB2A681368591C1160E968DE
:10773000641A298AB4FBF1F41C709DF8070000F06C
:107740002BFB03B030BD826810B504462AB14369F3
:107750000168006998470023A36010BD0EB403B50B
:10776000039921B104AB01AA019300F06FF802B0B4
:107770005DF804EB03B07047826830B40468551CB0
:107780008560A154D0E901329A4202D330BCFFF7A0
:10779000DABF30BC704700002DE9F84F9846DDE9AC
:1077A0000A43154682460F460A464FF00109AA428F
:1077B0000FD2C14538BFC14613F0010B01D16CB9DE
:1077C00000240126B8F1010F1BD908F1FF386E43E0
:1077D000F8E709F10109B2FBF5F2E8E79B070ED5DE
:1077E000B8F1000F0CBF30262026A145E9D2013C9C
:1077F00031465046FFF7C0FF002CF6D1E0E72026C7
:10780000F3E7B7FBF6F39D42E1D9DFF83C80B7FB25
:10781000F6F3504618F8031006FB1377FFF7ACFF9A
:107820003346AB42B6FBF5F6F1D2BBF1000F02D006
:107830000CB1A14501D3BDE8F88F20215046013C91
:10784000FFF79AFFF4E700BFF5E602002DE9F74FD6
:10785000054617468846002900F03E8118F8011BAE
:1078600049B92B7B002B00F03781284603B0BDE8D7
:10787000F04FFFF768BF252940F0B780002698F841
:1078800000302D2B424608F1010823D0302B24D0A4
:107890002B2B25D000242A2B02F1010123D13B6898
:1078A0001A1D1B683A601C440A4613782E2B26D1F9
:1078B00001324FF0000A104610F8011BA1F1300C04
:1078C000BCF1090F1DD80A2303FB0A13A3F1300AE8
:1078D0000246F0E746F00106D1E746F00206CEE7A1
:1078E00046F00406CBE711F8013CA3F1300009286B
:1078F000DBD80A2202FB0434303C0A46CBE74FF0C7
:10790000000A12F8011B01F0FB0068289046F8D02D
:10791000782909D86F290CD8632962D022D8252963
:1079200063D0582900F0888098F80030002B95D15A
:1079300097E770390829F7D801A353F821F000BF61
:10794000B37A02002979020029790200497A0200FB
:1079500029790200277A0200297902002979020098
:10796000397A0200642901D06929DDD13A68D2F858
:107970000090111D89EAE9723960A2EBE9724FF0BB
:10798000010B092A35DCD34538BFD3462CB1B9F1F8
:10799000000F01DB720700D5013CB30702D5BAF135
:1079A000000F03D0F00701D44CBB0024B9F1000F45
:1079B0002DDAC9F100092D212846FFF7DDFE06F07A
:1079C0000302022A04D1BAF1000F01D11CBB00242A
:1079D000CDE9004653460A2249462846FFF7DCFE19
:1079E000A2E73B681A1D19783A602846FFF7C4FEE3
:1079F0009AE70A230BF1010BB2FBF3F2C1E7A345AF
:107A0000D4D220212846013CFFF7B6FECCE771070F
:107A1000D5D52B21D0E7A345DAD230212846013C29
:107A2000FFF7AAFED2E73968CDE900460A1D3A60A1
:107A300053460A220968D0E739680A1D3A60CDE941
:107A4000004653461022F5E73B681A1D3A6016F0CF
:107A50000106D3F8009024D1B9F1000F03D04846B5
:107A600006F058FA0646B4421DD809F1FF3919F854
:107A7000011F00293FF458AF2846FFF77DFEF6E7C7
:107A800028460136FFF778FE19F806100029F7D1CD
:107A9000A642BFF449AF20212846013CFFF76CFE07
:107AA000F6E70026F0E720212846013CFFF764FEB8
:107AB000D9E73B681A1D3A60302128461C68FFF759
:107AC0005BFE78212846FFF757FE00220823CDE908
:107AD00000322146102280E703B0BDE8F08F00BFDE
:107AE0002DE9F84FB0F806A04579D2F800B09DF81E
:107AF00028900AFB05F5043D88460BEB0301A942DB
:107B000003F1040488BFA5EB030BB4FBFAF60746A8
:107B10000AFB1644C2F800B04EB9AAEB04055D4555
:107B200028BF5D46BBF1000F04D1BDE8F88F3F6868
:107B3000013EF1E7043408EB06003C442A46B9F163
:107B4000000F0DD02146ABEB050B06F065F9DA45C9
:107B50002E443F6855464FF0000428BF5D46E1E7DC
:107B600001462046EFE7FFF799BDF8B54679014693
:107B7000721E0546002393422D6803D30024A642BB
:107B800002D8F8BD0133F6E70F682846FFF7C1FDBC
:107B900001343946F3E72DE9F843068ACD1C074640
:107BA000FFF793FD043E35440446B5FBF6F5F0B10E
:107BB0004FF48073EDB28380C680013D076081463B
:107BC0004FF00008A84512D23846FFF77EFD064662
:107BD00048B163790133637108F10108C9F8000005
:107BE00007608146EEE72046FFF7BFFF3446204698
:107BF000BDE8F88301210430FFF72FBD10B5012146
:107C000004460430FFF735FDC0B220B92046BDE878
:107C10001040FFF7AABF10BD1FB5039200220092CB
:107C200003AAFFF75DFF05B05DF804FB1FB50392E3
:107C30000122009203AAFFF753FF05B05DF804FB91
:107C400041DF7047064B10B500241C70054B1C60CB
:107C5000BFF35F8F0449054800F03BF8204610BD94
:107C6000682B00206C2B002010E70200602B002006
:107C700007B500230DF107008DF8073000F068F814
:107C8000F1EE103A23F09F03E1EE103ABFF35F8F5D
:107C90000A4B4022C3F884219DF8070000F07CF8CD
:107CA00002F0B8FB20B103B05DF804EBFFF7C8BFEA
:107CB00020BF40BF20BF03B05DF804FB00E100E03F
:107CC000836800225A60C3E904229A60DA601A606D
:107CD00070470B684A684360934208BF0023016005
:107CE00008BF43607047436843B1026891685268B7
:107CF0000B449342436004BF00234360704700007D
:107D000010B50D49A1F59472914201D800200FE001
:107D10008C1AE30F03EBE4035B1002EBC30452F88D
:107D20003330834205D802D204F10802ECE76068E0
:107D300010BD2146E8E700BF1CEC020008B5FFF7C4
:107D4000DFFF024B002808BF184608BDDFEA02002B
:107D500070B5EFF3108672B60C4A946801239CB993
:107D600093600B4B0B4DD3F8801029401160C3F882
:107D70008050D3F8841051604FF0FF32C3F8842054
:107D8000047006B962B670BD0370FAE7702B00206C
:107D900000E100E0FC06FFBD084B9A6810B55AB13F
:107DA00050B9EFF3108172B6054A1C6814605C6824
:107DB0005460986001B962B610BD00BF702B0020FE
:107DC00000E100E0094B5A7899780132D2B2914231
:107DD00008BF0022197891421FBF027058781822FC
:107DE00002FB003014BF0430002070477C2B0020C1
:107DF00073B5054600240DF107000E468DF80740C7
:107E0000FFF7A6FF0DF10600FFF7DCFF90B106704B
:107E1000094B9DF8062045605A709DF80700FFF752
:107E2000BBFF24B9054B4FF48012C3F80021204654
:107E300002B070BD0424F0E77C2B002000E100E0DC
:107E4000024B4FF43C6043F00103184720EC020062
:107E500038B50E4B4FF40032C3F88020BFF34F8F7C
:107E6000BFF36F8F0A4C4FF480330125C4F84833B9
:107E7000C4F808336560FFF7E3FF064BA5600024F4
:107E80001C60FFF7DDFF044B1C7038BD00E100E013
:107E900000100140982C0020892C0020F8B51F4BC1
:107EA0001F491B680025C1F84051C1F84451C1F871
:107EB0004851C1F84C51C1F80051C1F804514BB3BD
:107EC000D1F8044517490968641A24F07F442F4605
:107ED0001A68A24209D8A41A15441A7CDE691AB19C
:107EE000D3E905201F749047AEB90F4A0F4B1178A4
:107EF0001B788B4205D10133DBB2022B08BF002374
:107F0000137012780A4B43F822500A4B4FF4801238
:107F1000C3F80021F8BD3346DAE700BF9C2C0020EF
:107F200000100140982C0020952C0020942C00205B
:107F30008C2C002000E100E02DE9F04FA14AA2497D
:107F400013780978A14D994285B03CD00133DBB25A
:107F5000022B08BF002313709D4912789D4B0F68B8
:107F600053F822003B1823F07F4300220B602B685C
:107F700016461446944613B942B12B6006E01968C0
:107F800081420ED902B12B60091A196001272B68B2
:107F9000DFF848A201934FF00008BEB9DFF844B201
:107FA00060E0401A0C44D968D3F81CE0C3F800C064
:107FB00031B13A1922F07F42C3E90121DE611E4648
:107FC00073460122D7E700263746E0E73446F669D4
:107FD0007F4B60681B68DFF810C2A168C21A22F0EC
:107FE0007F42624500F2A6800A4422600122227488
:107FF0002A680023C4E90133E361002A40F0A3802A
:108000002C60CAE79BF802105A1CD2B291428BF83E
:10801000002004BF00228BF80020182202FB03B3CB
:108020002A6819799C68022975D003297FD0012913
:1080300018D1207CB0B9D3E90312A2605A69E2607A
:108040009A69654BA2611A78002A18BF01466160DF
:10805000BEE78C4200F094808946C9690029F8D1B6
:10806000002323749BF800309BF801209A42C9D169
:108070002B68B8F1000F04D1019A9A4201D1002F68
:1080800043D0002B79D0D3F800A0544D504BD5F8F5
:1080900004751C68DFF854813E1B98F8003026F008
:1080A0007F4603369BB94FF48033C5F84433C5F897
:1080B00004334B4B4FF40032C3F880211A604FF069
:1080C0000109C5F80090FFF7BBFE88F80090B245A3
:1080D0002CBF5444A41924F07F44C5F84045D5F87A
:1080E0000435DB1B23F07F43E41B033324F07F4480
:1080F000A3420AD9D5F80435C5F84035FFF7A0FEEC
:10810000374B4FF40032C3F80021334B00221A7072
:1081100005B0BDE8F08F114691469FE71174D26912
:108120000123002AFAD1002B9CD02A609AE7002371
:108130001946F6E71B1A23F07F438B4234BFCB1A54
:108140000023236052E721681368994213D85B1A11
:108150001360E26154E7091AD8691A4638B1034638
:1081600018688842F7D3401A1860184613462160F1
:10817000E061DC6111E71346F2E7FFF769FEC4E74F
:108180004C4511D1D3692B6073B9DFF844E001206D
:10819000CDE90212CAF80800CEF800300E4B187074
:1081A000FFF74EFEDDE902120B68C969C9F81C1021
:1081B00011B1086803440B602B68934218BF4FF05D
:1081C00001084DE7942C0020952C00209C2C0020C9
:1081D000982C00208C2C0020882C002000100140BE
:1081E00000E100E07C2B0020FEFF7F00892C0020B6
:1081F00010B5FFF72DFE114B00200B2218809A704E
:108200000F4B18600F4B18700F4B18700F4B4FF43B
:108210008012C021C3F8802183F814131A6002F180
:108220008042A2F56F220124C2F8084583F8111399
:10823000074BD2F804251A6010BD00BF7C2B00202C
:108240009C2C0020942C0020952C002000E100E0C4
:10825000982C0020074B9B784BB132B128B10368B2
:10826000187C20B959745A6170470720704708205C
:10827000704700BF7C2B00202DE9F743DFF88C808E
:1082800098F8023005460E461746BBB3B0B31C4BF8
:108290004A1F9A4230D8436983B3437C0024012BA0
:1082A0000DF107000CBF8946A1468DF80740FFF786
:1082B0004FFD0DF10600FFF785FDD8B101230370D6
:1082C000104B4560D3F80435C0E90497C0E9023685
:1082D0009DF8063088F801309DF80700FFF75CFD37
:1082E00024B9094B4FF48012C3F80021204603B093
:1082F000BDE8F0830424EFE70724F7E70824F5E757
:10830000FAFFFF000010014000E100E07C2B00209C
:10831000064A92783AB130B1426922B10022027421
:108320000221FFF765BD0820704700BF7C2B0020AD
:1083300013B50B46114680B9104B1148114AC01AAB
:108340000E23C0080093104B0004104940F00100B8
:1083500003F007FB0E2002B010BD4BB9074B0848D5
:108360000B4AC01AC0080E2300930004064BECE72A
:1083700003601B6802B0BDE81040184728E6020001
:1083800088E6020026EC0200C7EC02002BEC02009B
:108390005AEC0200F7B580B92D4B2E482E4AC01A70
:1083A000C0080E242D4B009400042D4940F001001C
:1083B00003F0D7FA204603B0F0BD4AB9244B254854
:1083C000284AC01AC0080E24244B00940004ECE78D
:1083D000D0F800C0BCF1000F09D11D4B1D48224A46
:1083E000C01AC00808241D4B00940004DDE74BB9F7
:1083F000174B18481D4AC01AC0080924174B00948F
:108400000004D2E78D0709D0114B1248184AC01A50
:10841000C0081024114B00940004C6E7C568A942A7
:108420000BD34D1EEC180569AC4206D8DCF80840A9
:10843000A44603B0BDE8F0406047054B05480D4A2F
:10844000C01AC0081024054B00940004ADE700BF1B
:1084500028E6020088E6020026EC0200B5EC0200E5
:108460002BEC020060EC020054EC020067EC02000E
:108470006BEC020082EC020029DF704728DF7047B6
:1084800070B503689E6886B004460D466EB114222E
:108490000021684605F0E9FCA3680593237901955E
:1084A0002BB1012B0DD06846B04706B070BD01233B
:1084B0008DF8003023690293E368039363690493A2
:1084C000F1E702238DF80030E3681B030293F5E720
:1084D0000846704700207047024B187A003818BFD2
:1084E000012070473C2D0020034B187A0122B0FA7E
:1084F00080F05A74400970473C2D002008B51046A2
:108500001A4605F089FC002008BD000008B51422B9
:108510000021044805F0A9FC0348FEF7B0FF002045
:1085200008BD00BF3C2D00202C2D002010B5094CAB
:10853000094B43602046FFF7A8F840B901F06AFFF5
:10854000064920741C2306488C22FEF785FF002074
:1085500010BD00BF3C2D0020DCEC0200A02C002050
:108560002C2D002038B5234D234C2B7A3BB92349C1
:108570002348FEF7E0FF206008B9686038BD022399
:1085800024682B72237973B1012B24D02046032158
:10859000FFF776FF00232B726B6018491848BDE87F
:1085A0003840FEF7F3BFD4E90523D21AB2F5805F55
:1085B000D4E9031028BF4FF480529208012A38BF33
:1085C000012219441844FFF757FF50B11128DDD19B
:1085D00001232B72D2E7D4E903031844FFF74EFFBF
:1085E000F3E72B7C002BC9D1BDE83840022000F016
:1085F00009B800BF3C2D0020542D0020502D002034
:108600002C2D002038B5234C237A002B41D0022B8F
:1086100009D1032830D0204B00221B68E2601A7970
:108620003AB1012A22D0637C7BBBBDE83840FFF71A
:1086300099BFD3E905128D1AB5F5805F94BF521921
:1086400002F580529A619142EDD102284FF0000369
:1086500008BF19462372104B18BF0D211868FFF789
:108660000FFF0E490E48FEF791FFDCE71A69013251
:108670001A615B699A42E7E7E3680133082B01D886
:10868000E360D0E70023E360DFE7BDE8384001F0B6
:10869000B1BE38BD3C2D0020542D0020502D0020AF
:1086A0002C2D0020831E012B01D8FFF7ABBF704794
:1086B00000F0FD03012B08D1044B00225A74421E26
:1086C000504250411874FFF74DBF70473C2D0020B9
:1086D00010B5064C201DFEF7D8FF28B9637C1BB9E6
:1086E000BDE81040FFF73EBF10BD00BF3C2D00208D
:1086F0002DE9F34180460D46104801A916461F4654
:10870000FEF7DFFE0446B0B118220021043005F068
:10871000ACFB2D0B0123237101A90848C4F800808C
:10872000A760E5606661FEF7F6FEFFF7D1FF002067
:1087300002B0BDE8F0810420FAE700BF2C2D002034
:108740002DE9F34180460F460F4801A916461D4604
:10875000FEF7B7FE0446A8B118220021043005F048
:1087600084FB089BA36001A9C4E903670648C4F819
:1087700000806561FEF7CFFEFFF7AAFF002002B080
:10878000BDE8F0810420FAE72C2D0020BFF34F8FC5
:108790000549064BCA6802F4E0621343CB60BFF39D
:1087A0004F8F00BFFDE700BF00ED00E00400FA05B9
:1087B0004FF08053D3F83001A0F10D0358425841D7
:1087C00070470000024AD2F80034002BFBD07047FB
:1087D00000E0014010B5FFF7EBFF40B14FF08043E0
:1087E0000022C3F80C21C3F81021C3F83825FFF785
:1087F000DFFF002846D04FF08052574BD2F80414C8
:10880000C3F82015D2F80814C3F82415D2F80C14B4
:10881000C3F82815D2F81014C3F82C15D2F8141484
:10882000C3F83015D2F81814C3F83415D2F81C1454
:10883000C3F84015D2F82014C3F84415D2F8241414
:10884000C3F84815D2F82814C3F84C15D2F82C14E4
:10885000C3F85015D2F83014C3F85415D2F83414B4
:10886000C3F86015D2F83814C3F86415D2F83C1474
:10887000C3F86815D2F84014C3F86C15D2F8442434
:10888000C3F87025FFF794FF48B14FF08043D3F849
:108890000024D20744BF6FF00102C3F800242F4A1E
:1088A000D2F8883043F47003C2F88830BFF34F8F9A
:1088B000BFF36F8F4FF08053D3F830210D2A0ED1C4
:1088C000D3F83431022B02D8254AD35C3BB14FF0A8
:1088D0001023D3F808224FF08043C3F858254FF0F7
:1088E0001021D1F80C32DB0714D51E480123C0F843
:1088F0000435FFF767FFD1F80C3223F00103C1F80C
:108900000C32FFF75FFF0023C0F80435FFF75AFF72
:10891000FFF73CFFD1F80032002B03DBD1F8043223
:10892000002B14DA0F4901234FF01020C1F8043551
:108930001224FFF747FFC0F80042FFF743FFC0F8DB
:108940000442FFF73FFF0023C1F80435DEE7064B82
:10895000064A1A6010BD00BF00C0004000ED00E0F4
:1089600008ED020000E00140FC2A00200090D00346
:1089700038B5054D044645F001054FF47A40A84747
:10898000013CFAD138BD00BF10ED020010B504461D
:10899000D8B9134AD2F80435D94301F0010103F0E4
:1089A0000103C2F80815C2F80C350E4BD3F80425A4
:1089B0000D4B196801230A4401460C4804F060F984
:1089C00068B1BDE81040FEF703BD012807D1074894
:1089D00004F04AF9034B9C60014BC3F80C4510BDF1
:1089E0000003005000400240582D002018ED020006
:1089F00007B501230A4A0B48ADF80030694604F078
:108A0000E9F808B1FEF7E4FC06480123082200213A
:108A100004F036F908B1FEF7DBFC03B05DF804FBA7
:108A20008D89020018ED02000E4B10B518600E4B38
:108A3000024619600C460D480123002104F020F97C
:108A400008B1FEF7C5FC012308482246194604F088
:108A500017F908B1FEF7BCFCBDE81040034804F06C
:108A6000F7B800BF582D00205C2D002018ED020043
:108A700008B540F21F510820FFF7D6FF6420FFF72A
:108A800077FF40F21F510420FFF7CEFF6420FFF76D
:108A90006FFF40F21F510820FFF7C6FF6420FFF769
:108AA00067FF40F21F510420FFF7BEFF6420FFF76D
:108AB0005FFFBDE8084040F21F510220FFF7B4BF3E
:108AC00008B540F267610820FFF7AEFFC820FFF746
:108AD0004FFFBDE8084040F267610420FFF7A4BFE4
:108AE00008B540F267610820FFF79EFFC820FFF736
:108AF0003FFFBDE8084040F267610D20FFF794BFDB
:108B000010B50378013B052B15D8DFE803F00319F6
:108B10002A3A4A5A4378012B0DD11122314C0A705E
:108B200022784AB923704A702F4B1B780BB901F099
:108B300091FA0123A37410BD002222704B70F3E759
:108B40004278012AF7D121230B70264BD87820B91F
:108B5000DA70487002229A74EDE70020D8704A70EB
:108B6000F8E74278012AE6D131230B701D4B987942
:108B700018B99A7148700322EDE7002098714A7085
:108B8000F9E74278012AD6D141230B70154B587A68
:108B900018B95A7248700422DDE7002058724A70F2
:108BA000F9E74278012AC6D151230B700D4B187B8F
:108BB00018B91A7348700522CDE7002018734A705F
:108BC000F9E74278012AB6D161230B70054BD87BB7
:108BD00018B9DA7348700622BDE70020D8734A70CE
:108BE000F9E700BFD02D00202C2F0020436810B4DF
:108BF0005BB11548154B16495DF8044BC01AC00807
:108C0000000440F0030002F095BE0378012B04D06D
:108C1000022B10D05DF8044B70470C4B0A4C0269D4
:108C20000C49E41AE4088368240444F003005DF866
:108C3000044B02F08CBE054B034C02690649E41A52
:108C4000E40883682404F0E768E6020028E60200EE
:108C500020ED02002FED02004FED020010B502469C
:108C6000044618230F484FF47831FFF793FB08B1FF
:108C7000FEF7AEFB0C4B0D480D49C01AC0080004AE
:108C800040F0030002F056FE422323707523637008
:108C90006223A3706123E370202323716371A371A6
:108CA000E37110BDE82A002028E6020068E6020011
:108CB00071ED020038B50546174C18482A7C184952
:108CC000241AE408240444F00304204602F036FE8B
:108CD0006A7C1449204602F031FEAA7C12492046E3
:108CE00002F02CFEEA7C1149204602F027FE2A7D84
:108CF0000F49204602F022FE6A7D0E49204602F00E
:108D00001DFEAA7D0C49204602F018FE02F0C6FCAA
:108D10000028FBD138BD00BF68E6020028E602004B
:108D200086ED020097ED0200A7ED0200B9ED02000A
:108D3000CAED0200D7ED0200E5ED02001FB51E22CC
:108D40001F23CDE900234FF0CD610623CDE90213A7
:108D5000002307481A46694603F000FD08B1FEF7F4
:108D600037FB044804F092FC05B05DF804FB00BF3B
:108D7000F8ED0200FCED020008B5044804F096FC92
:108D8000BDE80840014804F0ABBC00BFFCED0200A8
:108D90002DE9FF41DFF84C808DF80C101E460123B1
:108DA000002704461546014600930D488DF80D70C6
:108DB00003AA88F8007004F04DFD08B1FEF708FB27
:108DC000074888F8007033462A46214604F058FDCB
:108DD00008B1FEF7FDFA002004B0BDE8F08100BF45
:108DE000FCED0200782D0020F7B50378062B1DD886
:108DF000DFE803F0041E4B242F4B4B000379ABB18B
:108E0000234C24482388ADF80630182BC4BF00211A
:108E1000ADF806102049C8BFC3F120021944D8BFDD
:108E2000082204F003FFBDF80630238003B0F0BD34
:108E3000174A436811880B441380F7E70379002B26
:108E4000F4D016491348082203B0BDE8F04004F0FE
:108E50000FBF4468012C0AD9104D0D492B880E4EC6
:108E60000B8000200222944205D100B10B800C4BF4
:108E700001221A70DAE7202B28BF0023AF5CF754D9
:108E8000581C83B201320120EDE7064BF0E700BF2A
:108E90007A2D002008EE02007D2D00209D2D00205F
:108EA000542E00207C2D002010B5154A86B04FF4BA
:108EB000004348F2200113F8010B02F8010B8B422A
:108EC000F9D1104A1048002313801222CDE9012362
:108ED00029220523CDE9032340F20333ADF81430F2
:108EE0000A4A022301A98DF8163004F0EBFD04466E
:108EF00010B9054804F066FE204606B010BD00BF5C
:108F00007D2D00207A2D002008EE0200E98D020060
:108F10001FB500238DF80D3001230C468DF80C0091
:108F20000093094803AA182104F094FC08B1FEF745
:108F30004FFA054801232246182104F0A1FC08B18C
:108F4000FEF746FA04B010BDFCED02001FB5002389
:108F50008DF80C008DF80D1000930648022303AA2B
:108F6000182104F077FC08B1FEF732FA05B05DF87D
:108F700004FB00BFFCED020007B50F200DF1070157
:108F8000FFF7C6FF9DF80700A0F133035842584190
:108F900003B05DF804FB07B50C200DF10701FFF7E6
:108FA000B7FF0DF107010D20FFF7B2FF9DF9070094
:108FB00003B05DF804FB07B5B0F5FA6F28BF4FF4B6
:108FC000FA60642838BF642000098DF807002F215B
:108FD0002020FFF7BBFF09212120FFF7B7FF402129
:108FE0002220FFF7B3FF80212320FFF7AFFF0821E6
:108FF0002420FFF7ABFF00212520FFF7A7FF2A2140
:109000003020FFF7A3FF9DF807103220FFF79EFFE7
:1090100000213320FFF79AFFC0211F20FFF796FFA2
:1090200000212E20FFF792FF0DF107013120FFF7FD
:109030006FFF03B05DF804FB73DF704776DF7047A6
:109040007FDF70478FDF7047B1DF70473FDF7047CA
:109050001F288ABF054B4FF0A04300F01F00D3F834
:10906000103523FA00F000F00100704700030050B3
:109070000388212B13B5044663D007D8112B37D0B2
:10908000132B56D0102B17D002B010BD522B66D028
:10909000562B01D03B2BF7D1354B00221A70A088FC
:1090A0001321FFF7CBFF08B1FEF792F9314A0123F4
:1090B00013721360304A19E0304B31483149C01AFD
:1090C000C008000440F0030002F034FC2E4BA188DD
:1090D0002E48198002F0E6FF08B1FEF779F9244A1C
:1090E00001231370234A13721360294A1370CBE7CC
:1090F000224B23482749C01AC008000440F003004F
:1091000002F018FC204B4FF6FF721A80184B002219
:109110001A70184B012119721960174BFF20197032
:10912000FFF78AFF0028AFD002B0BDE81040FEF77D
:109130004FB9154800231A4685210088FFF780FFA4
:10914000F0E7002380888DF8043001A98DF8053000
:10915000FFF778FF002897D0FEF73AF994E70A481E
:1091600000231A4619460088FFF76EFFDAE700BFB2
:10917000C52D0020F82D0020CF2D002028E602006C
:1091800068E6020010EE0200002B0020342E0020C2
:10919000CE2D00201AEE020038B5054D044645F0EC
:1091A00001054FF47A40A847013CFAD138BD00BF11
:1091B00020EF02001F2886BF054A00F01F004FF075
:1091C000A042012303FA00F0C2F80C05704700BF6B
:1091D000000300501F2886BF054A00F01F004FF013
:1091E000A042012303FA00F0C2F80805704700BF4F
:1091F0000003005008B5394B5A6801325A605A686A
:10920000B2F5966F84BF00225A60354AD1680131A9
:10921000D160D168B1F5966F81BF0021D160012185
:109220001170304A1168013111601168142901BFB1
:1092300000211160012111712B4A117851B151683F
:109240000131516050689168884201BF012111735A
:1092500000215160DA68022A02D0DA68032A02D1BA
:109260009A6801329A60214B9A683AB19A68013241
:109270009A609A68142A84BF00229A601C4B1A686C
:109280004AB11A6801321A601A68782A81BF00222E
:109290001A6001225A7217490B68EBB10B6801334F
:1092A0000B600B68042B0DD12220FFF783FF4B6866
:1092B00001334B604A688B689A4201BF00230B6000
:1092C0004B608B600B68082B06D101230B602220BA
:1092D000BDE80840FFF77EBF08BD00BF402E00205C
:1092E000B42D0020E42D0020102F0020A82D0020F8
:1092F000F82D0020582E00202DE9F04F4FF480412A
:1093000087B0002002F078F908B1FEF761F802F0AA
:10931000B1F800F07BFCFEF76BFF08B1FEF758F8E0
:109320007A4A7B480121FEF795FF08B1FEF750F815
:10933000FEF788FC08B1FEF74BF8764B764E77497E
:10934000F61AF608360446F00306304602F0F2FA42
:109350007349304602F0EEFA724A7349304602F021
:10936000EDFA724A7249304602F0E8FA7149304625
:1093700002F0E0FA7049304602F0DCFA6F493046FC
:1093800002F0D8FA6E49304602F0D4FA6D496E48C0
:109390000022FEF7CDFF08B1FEF71AF86B48FFF781
:1093A0005DFC6A48FFF786FC00F0B6FF08B1FEF7E7
:1093B0000FF80DF11009002349460120049301F034
:1093C00077F808B1FEF704F8484601F013F908B140
:1093D000FDF7FEFF0120FFF739FE5D48002240F255
:1093E0003331FEF749FF08B1FDF7F2FFFFF700FB4D
:1093F000FFF7A4FCFFF7CFFDFFF7BEFD002800F04C
:1094000083805449304602F095FA7820FFF7D3FD67
:10941000FFF74AFD08B1FDF7DBFFDFF864A14E4C12
:10942000DAF8000001F009FD01250020E57201F0E5
:10943000FFFA0A20FFF7B0FE484B009384229623E0
:109440001E21362001F05AFF01F0C6FB1820FFF75D
:10945000C1FEA572424D00F0B5FA0023EB60032770
:109460002220FFF7B7FEC820FFF796FE2220FFF765
:10947000A1FEC820FFF790FE013FF1D13948DFF887
:1094800004B1394F00F042FACBF80000FFF774FC4A
:109490000123236000F084FC00F054FC334B1B7864
:1094A000B3B1324ADFF8E08031490023137098F8F5
:1094B0000020304602F042FA2E494046FFF720FBDA
:1094C000082040F21F51FFF7AFFA012000F074FCB2
:1094D0003B79002B78D04FF000081C2087F80480DF
:1094E000FFF7B6FD002851D1234BF8601870B86023
:1094F0002874687400F026FCEB68002B64D001230C
:10950000EB60237223605FE01C497BE7F59102006A
:10951000D8C0030028E6020068E6020027EE020039
:1095200045EE020009C3030063EE0200F8C2030027
:109530007BEE02008BEE0200A9EE0200C7EE0200F5
:10954000E6EE0200E8EC0200E82A0020602D002090
:10955000082B0020F5EE0200F82D002026EF020077
:10956000402E0020B52D0020E42D0020542E002098
:1095700008EF0200C62D0020C42D0020FEEE0200E0
:10958000342B0020042E00209D2D002000F0D1FB64
:109590001920FFF75DFD012840F03081A94B1A78B2
:1095A00012B91870FFF764FAFB680133FB60FB68BF
:1095B000032B09D10223BB60EB606B7C23B9012331
:1095C0006B7440F2EF13AB60DFF8B482D8F80C3064
:1095D0000A2B32D198F800307BB3FFF7AFFB40463F
:1095E000002300F8013B00F091F9974ACBF8000006
:1095F0001388002800F0108143F40063934813801F
:1096000000F06AF9904ACBF800001388002800F0B7
:10961000078143F40063138098F801305F2B84BF07
:10962000642388F80130FFF7A7FB98F801300F2B6F
:1096300040F2FA80002388F808302520FFF708FD63
:10964000012816D1824B9A689AB99860236813B999
:1096500002236360207201232360FFF76FFB7D49C3
:109660003120FFF755FCFFF787FB7B49304602F0BE
:1096700061F9EB68032B0BD1AB68A02B08D900F084
:109680008CFB00237548AB6002220E2100F0E2F94A
:10969000EB68022B0CD1AB68B3F5FA7F08D900F068
:1096A0007CFB00236E48AB600A22012100F0D2F956
:1096B000EB68012B03D10023EB6000F071FBEB683A
:1096C0000BB900F0D3F9674B1A7B7AB100221A73F9
:1096D000186900F099F9634B19690131196118692A
:1096E00059690022884204BF1A701A615E4B1A78C9
:1096F00032B100221A70FFF7E3F9022000F05CFBA0
:109700005A4B1A7832B100221A70FFF7E9F901209A
:1097100000F052FB237A002B3FD0A37A002B3CD1E0
:109720006368012B0CD1E27A32B9DAF800000393B6
:1097300001F083FB039BE3720023237201F068FABC
:109740006368022B29D1E37A2BB9DAF8000001F023
:1097500074FB0123E37200222272BB68012B40F0EC
:109760009180434B00932C2232231421622001F07C
:10977000C5FD404B1B78012B40F09A803E4B009377
:109780002C223C235621B42001F0B8FD98F80100AA
:1097900001F060F91820FFF71DFD6368032B0BD162
:1097A000E37A2BB9DAF8000001F047FB0123E372FA
:1097B0000023237200F00CFB637A9BB12F4B002136
:1097C0001820617219702172A172E1726160FFF755
:1097D000F1FC084601F02CF901F052F801F074FC9C
:1097E00000F0B4FA01F05AFF0028FBD101F056FF57
:1097F00000287FF453AEFEF73BFA4FE60322012325
:10980000C7F80C80BB60EA602A7C002A7FF4DCAEDB
:109810009B222B74AA6074E623F400639BB2EDE6EE
:1098200023F400639BB2F6E6043B0B2B95BF0123A8
:10983000022388F8083088F8083094BF04230523F1
:10984000EB60FAE6C42D0020F42D0020B82D002096
:10985000A82D0020AD2D002013EF020000C1030051
:10986000DCC00300102F0020CE2D0020CF2D0020C3
:10987000769E0300C52D0020D68903002C2F0020E2
:10988000B42D0020BB68022B01D1124B6AE7622382
:10989000ADF810301423ADF812302C23ADF814308D
:1098A0003223ADF8163099E8030001F0ABF860E719
:1098B000B423ADF810302C223C23ADF81420ADF8C1
:1098C0001230ADF8163099E80300002201F09AF842
:1098D0005CE700BFA6AF030013B50223044601AA4C
:1098E00019463620FFF754FA01280DD09DF80530AF
:1098F0009DF804201B0943EA02137D2253430020F4
:109900006422B3FBF2F3236002B010BD13B502234F
:10991000044601AA04213620FFF73AFA01281EBFA7
:109920009DF804302370002002B010BD436810B5CC
:10993000054C13B123680133236023681BB103F086
:10994000A7F80023236010BD0C2F002070B5C0B114
:10995000FF2819D000224FF088330F240E2540FA3B
:1099600002F1C90707D5910004FA01F623EA0603BC
:1099700005FA01F10B430132082AF0D14FEA3340D6
:1099800070BD4FF08830FBE74FF0EE30F8E7000095
:10999000F8B500EB400410460F461E46FFF7D6FF11
:1099A000074D45F824003846FFF7D0FF631C02340A
:1099B00045F823003046FFF7C9FF45F82400F8BDFD
:1099C000642E002030B50E4D0FCD87B001AC0FC412
:1099D0002B68236040F61113ADF804304FF0C053EC
:1099E00004930849002301A88DF814308DF80E3037
:1099F00002F054FF08B1FDF7EBFC07B030BD00BF2B
:109A000014C303002D99020070B5104E346924234D
:109A10005C430025B169B269B369095D23442244FE
:109A2000E8B29B7852780135FFF7B2FF0C2D04F1B4
:109A30000304EFD1064800222A2102F0B7FF18B133
:109A4000BDE87040FDF7C4BC70BD00BF102F002002
:109A500028C30300044B9A6000221A610122596155
:109A600098611A70704700BF102F002010B53D4C50
:109A70006368B3F5FA7F04D163680133636000F073
:109A80008CF96368B3F5FF7F0AD1636801336360C3
:109A9000354B197A01294CD134480522FFF7DAFFFA
:109AA000626840F212239A4207D16368304801335A
:109AB0000A2201216360FFF7CDFF6368B3F5077FDA
:109AC00004D163680133636000F06AF9626840F2B0
:109AD0004C439A4204D163680133636000F05DF93E
:109AE000626840F256439A420AD163680133636068
:109AF0001D4B197A012928D11E480522FFF7AAFF1C
:109B0000626840F26A439A4207D163681848013399
:109B10000A2201216360FFF79DFF626840F27443EF
:109B20009A421ED1636801336360BDE8104000F0C3
:109B300037B9114B1B78012BD9B20CBF0F48104815
:109B40004FF0050218BF0121A8E70B4B1B78012B32
:109B5000D9B20CBF0B480C484FF0050218BF0121C9
:109B6000CCE710BD402E0020B42D0020E4C303003C
:109B7000C0C3030008C40300C52D002078C3030040
:109B800030C303009CC3030054C303001F2886BFD7
:109B900000F01F00044B4FF0A04300F5E0700322DB
:109BA00043F82020704700BF000300501F2886BFE5
:109BB00000F01F00044B4FF0A04300F5E070890057
:109BC00043F82010704700BF000300501F2886BFD5
:109BD000054A00F01F004FF0A042012303FA00F0F5
:109BE000C2F80C05704700BF000300501F2886BF55
:109BF000054A00F01F004FF0A042012303FA00F0D5
:109C0000C2F80805704700BF0003005008B52220C5
:109C1000FFF7BCFF2220FFF7D9FF2020FFF7B6FF98
:109C20002020FFF7D3FF0A20FFF7B0FF0A20FFF73D
:109C3000CDFF0220FFF7AAFF0220FFF7C7FF012197
:109C40002520FFF7B3FF03211A20FFF7AFFF032101
:109C50001D20FFF7ABFF00210320FFF7A7FF032123
:109C60001920FFF7A3FF00211C20FFF79FFF1E20F4
:109C7000FFF78CFF1E20FFF7A9FF00211F20FFF731
:109C800095FF00212920FFF791FF05200021FFF714
:109C90008DFF1820FFF77AFF1820FFF797FF262087
:109CA000FFF774FF2620FFF7A1FF1620FFF76EFFD6
:109CB0001620FFF78BFF1420FFF768FF1420FFF733
:109CC00085FF2420FFF762FF2420FFF78FFF0D2080
:109CD000FFF75CFF0D20FFF779FF2620FFF756FF07
:109CE0002620FFF783FF0C20FFF750FF0C20FFF723
:109CF0006DFF0820FFF74AFF0820FFF767FF0420E9
:109D0000FFF744FF0420FFF761FF0720FFF73EFF46
:109D10000720FFF75BFF0F20FFF738FF0F20FFF74B
:109D200055FF0620FFF732FFBDE808400620FFF789
:109D30004DBF08B50320FFF729FFBDE80840032009
:109D4000FFF744BF00210320FFF730BF08B52620EE
:109D5000FFF71CFF2620FFF749FF1620FFF716FF2D
:109D60001620FFF733FF1420FFF710FF1420FFF732
:109D70002DFF2420FFF70AFF2420FFF737FF0D20D7
:109D8000FFF704FF0D20FFF721FF2620FFF7FEFE5F
:109D9000BDE808402620FFF729BF0220FFF726BFB5
:109DA00008B50220FFF712FF0A20FFF7EFFEBDE81B
:109DB00008400A20FFF70ABF044B002298605A604F
:109DC000222001221A60FFF711BF00BF582E002089
:109DD00037B5964C2378002B00F084804FF0A043D9
:109DE0004FF08072C3F80825914A9249937C012074
:109DF000FF2B086076D083421BD1FF239374E37856
:109E0000013B13F0FF0302D10623E37001E0FF2BB7
:109E1000FBD1937C032B18D102234B60FF23937457
:109E2000002001230B720B6000F002FE0023237060
:109E30000BE0042B40F0F480FF239374E3780133AC
:109E4000DBB2062B40F2EA80E070E378A2789A4217
:109E500048D0A370062B45D8DFE813F00700460072
:109E600061007E009900B400C600734D002000F030
:109E7000DFFD2B687148009314223C234FF4FC61F2
:109E800000F0A8FD2B686E480093142250234FF673
:109E9000FF7100F09FFD2B686A4800931422642331
:109EA0004FF6FF7100F096FD2B686748009314226F
:109EB00078234FF6FF7100F08DFD2B686348009307
:109EC00014228C234FF6FF7100F084FD2B68009361
:109ED0005F48A02314224FF6FF7100F07BFD0123A1
:109EE000A370E37003B030BD534C54482368009313
:109EF00014223C234FF4FC6100F06CFD23685048B1
:109F00000093142250234FF6FF7100F063FD236885
:109F100000931422A0234FF6FF714D4819E0464CE0
:109F200046482368009314223C234FF6FF7100F04B
:109F300051FD236842480093142250234FF4FC61E2
:109F400000F048FD23683F480093142264234FF635
:109F5000FF7100F03FFDC5E7374C39482368009397
:109F6000142250234FF6FF7100F034FD236835486A
:109F70000093142264234FF4FC6100F02BFD23684E
:109F800000933148782314224FF6FF71E1E72A4C01
:109F90002C4823680093142264234FF6FF7100F0CD
:109FA00019FD236828480093142278234FF4FC619C
:109FB00000F010FD2368009324488C2314224FF6F0
:109FC000FF71C6E71C4C20482368009314227823B5
:109FD0004FF6FF7100F0FEFC236800931B488C23B2
:109FE00014224FF4FC6190E7134C1448236800934B
:109FF00014223C234FF6FF7100F0ECFC2368009321
:10A0000014228C234FF6FF71104800F0E3FC236804
:10A0100000931422A0234FF4FC617EE7E37014E761
:10A02000022B7FF4F6AEFF2393740EE72C2F002053
:10A03000D02D0020F82D0020282B00205CC4030028
:10A0400042C4030036C403002CC4030050C4030000
:10A050004BC40300064B03225A6001221A721A6095
:10A06000044B1A70FF229A700022DA70704700BF0A
:10A07000F82D00202C2F00200369C26893429CBF5A
:10A0800080681B18013B981A70472DE9F843D0E906
:10A0900002940546A9EB04084068904520440F4609
:10A0A000144404D903F0B8FEEC60BDE8F8834246DE
:10A0B000A4EB090403F0B0FE6868224607EB080130
:10A0C000F0E72DE9F843C5680646894617464FF084
:10A0D00000083469B3687068A54228BFE418013CE1
:10A0E000621B5C1BBC4228BF3C46944228BF1446FE
:10A0F00049462844224603F08FFEB3682544AB420C
:10A1000008BF00253F1BA044A144F560E1D14046B3
:10A11000BDE8F88310B5114C114AA2610223C4E9CD
:10A120000433104BE361A2644FF400730E4A0F49ED
:10A130002362E26400231022E01DA3626362E362F3
:10A14000A3656365E365226503F0C2FE0849204606
:10A1500003F0BEFE2023A37110BD00BF302F0020EE
:10A1600062C40300B82F0020A82F00206BC4030096
:10A170006FC4030070B5164B182400FB04451D4442
:10A1800004FB00331646DC6A012C0ED0022C18D0DA
:10A19000E4B92846FFF770FF864204D832462846C5
:10A1A000FFF773FF3446204670BD2846FFF764FF73
:10A1B0008642344628BF044622462846FFF765FFFC
:10A1C000F1E72846BDE87040FFF77BBF0024EAE7CF
:10A1D000302F002073B50E4B1B7804460D461646F3
:10A1E0000BB9FFF797FF00230DF107008DF807303B
:10A1F000FDF7AEFD324629462046FFF7BBFF044679
:10A200009DF80700FDF7C8FD204602B070BD00BFF5
:10A21000302F0020FFF77EBF0FB410B5A2B024ABE3
:10A22000802153F8042B019302A803F0E7FD802856
:10A2300004460ADD802202A90020FFF7CBFF20465A
:10A2400022B0BDE8104004B070470028F7DD024698
:10A25000F1E710DF704711DF7047000013B50446C7
:10A2600009496846FDF735FD019808B902B010BDEF
:10A27000D0E900212046904718B16846FDF733FD2C
:10A28000F2E71120F2E700BF84C4030013B50446CF
:10A2900007496846FDF71DFD019B0BB902B010BDD3
:10A2A0002046D3E9002190476846FDF71CFDF3E7FF
:10A2B0009CC40300084B9A6822B11A6822F48002F9
:10A2C0001A607047054B4FF48002C3F88020BFF33B
:10A2D0004F8FBFF36F8F7047702B002000E100E0BD
:10A2E0000B4991F816335A09EC231341DB0706D5C5
:10A2F000084B9A683AB94FF480030B60704742F2FA
:10A300000200FDF765B81A6842F480021A607047CF
:10A3100000E100E0702B0020F7B5194F3C7864BBDA
:10A32000184E012520463570FFF798FF112821D0DF
:10A330002046FFF7ABFF144B8DF8034018680190DF
:10A340000DF10300FDF704FD104901A8FFF781FF9F
:10A350000446B0FA80F0400938709DF80300FDF71C
:10A360001BFD3CB90A4B34701C70FFF7B9FF28463F
:10A37000FFF78CFF204603B0F0BD0824FAE700BFCA
:10A38000B9310020B83100207EC40300ED73020013
:10A39000BA310020F7B5154F3B781BB3144E01209E
:10A3A0003070FFF75BFF11284FF000051CD0022032
:10A3B000FFF76CFF0DF107008DF80750FDF7C8FCA3
:10A3C000FFF749FF04469DF807003D70FDF7E4FCE8
:10A3D0002CB903203470FFF76DFFFFF757FF2046BD
:10A3E00003B0F0BD0824FAE72C46F8E7B9310020A5
:10A3F000B8310020054B1B7833B1054B1B780BB1EE
:10A40000FFF7C8BFFFF788BF08207047B8310020AA
:10A41000B9310020014B1878704700BFB9310020D6
:10A4200007B508496846FDF754FC019B13B903B012
:10A430005DF804FBD3E9002090476846FDF753FC24
:10A44000F3E700BF90C40300FFF7EABF60DF704787
:10A4500069DF704761DF704730B5134B1B7891B0EF
:10A46000FBB1124D34240DF1020103A8ADF80240F6
:10A47000FFF7F0FF70B9294601A8FDF72AFC029BFF
:10A48000002BF0D003A8D3E90021904701A8FDF7E5
:10A490002AFCF4E7052804D011B0BDE83040FCF7F1
:10A4A00097BF11B030BD00BFBB310020E0C6030034
:10A4B00030B50C4685B0002900F089800023CDE935
:10A4C0000133444A039301230A608DF804008DF898
:10A4D000063001A906232020ADF80830FFF7B8FFA9
:10A4E00060B1FDF72BFC3C4B3C4902463C481B1A33
:10A4F000DB081B0443F0010001F020FA0023CDE942
:10A50000013303932268012301A940208DF805300F
:10A51000FFF79EFF60B1FDF711FC2F4B314902465A
:10A520002F481B1ADB081B0443F0010001F006FA58
:10A530000023CDE90133039322680A2301A90120F6
:10A540008DF80430FFF784FF60B1FDF7F7FB224B75
:10A550002549024622481B1ADB081B0443F0010070
:10A5600001F0ECF90023CDE9023322684FF4B06327
:10A5700001A9A1200193FFF76BFF60B1FDF7DEFB9E
:10A58000154B1A49024616481B1ADB081B0443F0F8
:10A59000010001F0D3F900252268039501A9A0204C
:10A5A000CDE90155FFF754FF034668B1FDF7C6FB3F
:10A5B000094B0F4902460A481B1ADB081B0443F0EB
:10A5C000010001F0BBF92B46184605B030BD0E2343
:10A5D000FAE700BFE82A002098E60200A8C40300BA
:10A5E00028E60200EEC403003AC5030086C5030056
:10A5F000D7C5030073B505460668FFF727FF2B682C
:10A60000B34204461DD91A481A4B1B491B1ADB08D2
:10A610001B0443F00200019001F08CF92B681749EC
:10A620000198324601F093F94FF080532A68D3F82D
:10A630000C31134901989B0203F100539A1A01F05F
:10A640007DF92CB90F4B01221A70204602B070BD63
:10A650002046FDF773FB074B0B49024604481B1AC3
:10A66000DB081B0443F0010001F068F9EDE700BFCF
:10A6700028E6020098E602002AC6030059C6030035
:10A680008AC60300BB310020B4C603004BDF70470D
:10A690001FB50E4C01A8FFF7F9FF70B9214602A8BB
:10A6A000FDF717FB039B002BF4D00198D3E90021A1
:10A6B000904702A8FDF717FBF4E7052804D004B083
:10A6C000BDE81040FCF784BE04B010BDF8C603001E
:10A6D000012300F01F0003FA00F0024BC3F80C0541
:10A6E000704700BF000300507047002814BF2120AE
:10A6F000202000F071BD000038B5054D044645F03E
:10A7000001054FF47A40A847013CFAD138BD00BF9B
:10A7100040C803001F2886BF054A00F01F004FF005
:10A72000A042012303FA00F0C2F80805704700BFF9
:10A7300000030050F8B504461D462420069E174627
:10A74000FFF7C6FF013A6B1E0B44224420B29BB2B6
:10A7500092B2C6F307247D43360209B200F05EFDD3
:10A76000B0B2EE1D05F007050443013D0D20FFF7D3
:10A77000D1FFF610A4B2062D05D8DFE805F01916B2
:10A7800013100D0A0700204600F0F8FC204600F0E8
:10A79000F5FC204600F0F2FC204600F0EFFC2046DD
:10A7A00000F0ECFC204600F0E9FC204600F0E6FC5E
:10A7B000204600F0E3FC013EE5D1BDE8F84024204E
:10A7C000FFF7A8BF37B505460D2014460191FFF7E6
:10A7D000A1FF2420FFF77CFF019B2A4619B228B273
:10A7E00000F01CFDC4F307202402A4B2204300F0B3
:10A7F000C5FC242003B0BDE83040FFF78BBF73B524
:10A8000004464FF6FF70814215461E469DF81820FB
:10A810009DF81C3013D10D20CDE90023FFF77AFFFE
:10A820002420FFF755FF3146DDE90023284600F0DC
:10A83000F5FC242002B0BDE87040FFF76BBF242078
:10A84000FFF746FF204600F0B1FCF2E70138C0B246
:10A85000022810B59CBF094B1C5C4FF0240088BF38
:10A860000824FFF735FF362000F034FC204600F0C6
:10A870006DFCBDE810402420FFF74CBF31C8030039
:10A8800008B5102000F0A8FCBDE808407820FFF7CC
:10A8900033BF00002DE9F84FDFF8CC90DFF8CC8013
:10A8A00005460F464FF0000ABA4501D3BDE8F88FC0
:10A8B00015F80A400AF101060A2C47D8DFE804F02F
:10A8C0001020313306381E17223A3F00022405EBD0
:10A8D0000A0B2646002E3FD10AF1010AA244E3E703
:10A8E0000D20FFF717FF2420FFF7F2FEEFE701240A
:10A8F0000134A85D00F0EEFBB246E8E70024F7E77C
:10A900000024F6E70224AB5D88F801300AF1020A60
:10A9100015F80A3088F80030B8F8000000F0F8FBAD
:10A92000D5E70024EFE70124D1E7B2460446CEE79D
:10A93000AC5DE1E72420FFF7EDFE0024C7E7A85D4A
:10A940000028F2D0FFF7D8FEB246F6E7224651467D
:10A950004846FFF761FCF0E71BF8010F013E00F0ED
:10A96000F5FBF6B2B6E700BF04C70300BC31002018
:10A9700010B5124B0322C4B0C3F818272620FFF7E6
:10A98000C9FE6420FFF7B8FE2620FFF7A1FE78205D
:10A99000FFF7B2FE2620FFF7BDFE4FF48774782044
:10A9A000FFF7AAFE22460649684603F035FA21461B
:10A9B0006846FFF76FFF44B010BD00BF00030050B2
:10A9C00023C7030008B500F045FBFFF7D1FF0020C7
:10A9D00008BD00001FB5ADF80E3001230193069BA2
:10A9E000009303460648ADF80C2000680A4603A908
:10A9F00000F0A6FA08B1FCF7EBFC05B05DF804FB2B
:10AA0000342B00201FB504AB03E90300074BBDF84E
:10AA10000A101B680092DC68BDF80C20BDF80E30EF
:10AA2000BDF80800A04704B010BD00BF342B0020C3
:10AA300082B00023ADF80030ADF80230F023ADF85D
:10AA40000430ADF8063002AB024613E9030002B051
:10AA5000FFF7D8BF2DE9F04F0A23B0FBF3F403FB57
:10AA60001408B4FBF3F503FB154408F13008303447
:10AA700030350F2887B081465FFA88F8E4B2EDB22E
:10AA800000F2A180831F092B4FF6E07788BF4FF4B7
:10AA900078474E4E0423ADF814304FF0500BDC23B2
:10AAA0004FF0A00A3068ADF80CB04FF6FF7203A962
:10AAB000ADF810A0ADF80E30ADF8123000F0C6F9C8
:10AAC00008B1FCF785FCBE233068ADF80CB04FF63A
:10AAD000FF7203A9ADF810A0ADF80E30ADF812303A
:10AAE00000F0B4F908B1FCF773FC5023ADF80C305A
:10AAF000ADF81030BE23ADF80E303068DC234FF6D1
:10AB0000FF7203A9ADF8123000F0A0F908B1FCF70C
:10AB10005FFCA023ADF80C30ADF81030BE23ADF8CB
:10AB20000E303068E0234FF6FF7203A9ADF8123003
:10AB300000F08CF908B1FCF74BFC254B4FF6FF7287
:10AB400018685968FFF75EFFA9F10A00592894BFF9
:10AB500060235E23302DADF80A3004D1302C0ABFBB
:10AB6000202420252546DFF86C9001974FF0C60A77
:10AB7000CDF800A0D9F8001030680DF10A032A467C
:10AB800000F0F0F8CDE900A73068D9F800100DF119
:10AB90000A03224600F0E6F8CDE900A73068D9F8AC
:10ABA00000100DF10A03424600F0DCF8CDE900A7E1
:10ABB0003068D9F800100DF10A03252200F0D2F810
:10ABC00007B0BDE8F08F4FF4FC6762E7342B00203C
:10ABD00068C803003C2B002013B50A4C0A482368C0
:10ABE00000932D22BE234FF6FF71FFF7F3FE23687B
:10ABF00000930648D22350224FF6FF71FFF7EAFE7A
:10AC000002B010BD382B0020F8C2030009C30300B6
:10AC100007B50020FFF70CFF0A4B00938422962310
:10AC20001E21362000F06AFBFFF7D6FF4FF0A0434D
:10AC30004FF08072C3F80825034B01221A6003B05D
:10AC40005DF804FB70C80300F82D0020F0B4064640
:10AC50000846F469059FA588A84211461A46BDF822
:10AC6000103010D264888C420DD92D1AAA42A4EB60
:10AC70000104C8BFAAB2A342C8BFA3B2F468049734
:10AC8000A446F0BC6047F0BC704730B404460846A8
:10AC900011461A46E3699D88854205D95B888B4237
:10ACA00002D9A36830BC184730BC70472DE9F04F7B
:10ACB0002DED028B83B05C1ABDF93890994234BFF8
:10ACC0004FF0010A4FF0FF3AA9EB02064A45B4BF24
:10ACD0004FF0010B4FF0FF3B002CB8BF6442002E39
:10ACE000B8BF764298460F9B24B236B208EE100ADF
:10ACF0000D461746FFF7C9FFB442B7BF23460023EE
:10AD000034461E46B8BF01230093331B76005B0018
:10AD1000B6B29BB2341B019324B2B94506D1454566
:10AD200004D103B0BDEC028BBDE8F08F002CA3B2C0
:10AD30000EDB019A55445F44D418ADB2BFB224B2C1
:10AD40000F9B18EE100A3A462946FFF79EFFE4E7EC
:10AD5000F418009B24B213B15F44BFB2F0E755442E
:10AD6000ADB2EDE72DE9F04F4E78961B89B00C4659
:10AD7000F6B2B1000091616811F826100731CF10CA
:10AD80001D46C908BDF848300493202ABDF84C3050
:10AD9000019702910DD04FF0000AD34621781FFA97
:10ADA0008BF2914241D904990A444FF0000992B2C2
:10ADB00031E022782B8803EB52032B8009B0BDE8E9
:10ADC000F08FFF00B9B203914FF0000861680F46A1
:10ADD00000990F44A168B7F802C05144494411F8E2
:10ADE0000C10C8F1070C41FA0CF1C9070CD52988E1
:10ADF000039F05903944414489B2CDE90623FFF70A
:10AE000044FFDDE90623059808F10108B8F1080FB1
:10AE1000DCD109F1010902991FFA89F7B942D0D8AA
:10AE2000019A0BF1010B9244B8E76368E278298834
:10AE300013F826300A441344BFE710B503680446EC
:10AE4000984710B9E36901221A7010BDF0B5C369C3
:10AE50000C469E880988B14285B0174603D9A5885B
:10AE60005A8895426AD86288E588B24202D95B88DE
:10AE7000AB4263D3A388B4F808C0A1EB030E561B02
:10AE8000BEF1000FB8BFCEF1000E002EB8BF764263
:10AE9000B645CABF664600264FF0000C994201D065
:10AEA000AA4213D15B1A002BA5EB0205B8BF5B4287
:10AEB000002DB8BF6D422E446344B6B20197009690
:10AEC0009BB2FFF7C3FE002005B0F0BDBCF1000F40
:10AED0001CD1002E30D12DB201970095FFF7E6FE70
:10AEE000F1E72288A38801970B441144B4F90620A6
:10AEF00000929BB26288039089B2FFF7D7FE039855
:10AF000001352389A9B28B42EBD8DCE70025F8E7AD
:10AF1000E388628801970A44194409B20091A38822
:10AF20002188039092B2FFF7C1FE0398013523896F
:10AF3000A9B28B42ECD8C6E76546F8E70720C3E71D
:10AF40002DE9F04F85B090460A880E9EADF80E2090
:10AF5000C2694D8852889DF83C900F463178521A4C
:10AF60009542834643DC5C1E4FF00A0A14F8012F19
:10AF700012B30A2A24D13B88ADF80E303378B3FBE4
:10AF8000F2F21A441544ADB22378DBF81C10BDF878
:10AF90000E00202B17BF727833789B1ADBB21CBFD0
:10AFA000726812F823308A8808BF5B08D31A984267
:10AFB000DCDDB9F1000F0CD1002005B0BDE8F08F49
:10AFC000CDE900580DF10E0331465846FFF7CAFE91
:10AFD000DAE732783B88ADF80E30B2FBFAF313446F
:10AFE0001D444B88ADB29B1A9D42BFDDE4E70720AC
:10AFF000E3E700001F2886BF00F01F00044B4FF05E
:10B00000A04300F5E070032243F82020704700BF02
:10B01000000300501F2886BF054A00F01F004FF0B4
:10B02000A042012303FA00F0C2F80C05704700BFEC
:10B03000000300501F2886BF054A00F01F004FF094
:10B04000A042012303FA00F0C2F80805704700BFD0
:10B05000000300501FB54FF0A04340F20332C3F885
:10B0600050272420C3F85827FFF7C4FF0D20FFF70F
:10B07000C1FF2620FFF7BEFF0D20FFF7CBFF2620E4
:10B08000FFF7C8FF2420FFF7D5FF0D4B0FCB6C4611
:10B0900084E80F004FF0A053029303238DF80C3087
:10B0A00041F21463ADF80030002306481A462146E9
:10B0B00001F0C0FE08B1FCF78BF904B010BD00BF71
:10B0C0002463040034630400014801F09BBF00BF07
:10B0D000346304007FB58DF807000D20FFF79AFF59
:10B0E0000DF10703029301220023CDE90323059309
:10B0F000054B06481A6802A901F0DAFF0D20FFF798
:10B1000099FF07B05DF804FB402B00203463040076
:10B110007FB5ADF806000D20FFF77CFF0DF10603AB
:10B12000029302220023CDE903230593054B064831
:10B130001A6802A901F0BCFF0D20FFF77BFF07B0E2
:10B140005DF804FB402B0020346304007FB50DF153
:10B150000703029301220023CDE903230593054B46
:10B160008DF807001A68044802A901F0A1FF07B092
:10B170005DF804FB402B0020346304007FB50DF123
:10B180000603029302220023CDE903230593054B16
:10B19000ADF806001A68044802A901F089FF07B05B
:10B1A0005DF804FB402B0020346304007FB501AB45
:10B1B000CDE902310023CDE90433054B01901A6833
:10B1C000044802A901F074FF07B05DF804FB00BF5A
:10B1D000402B0020346304007FB58DF80700242045
:10B1E000FFF718FF0D20FFF715FF0DF1070302937E
:10B1F00001220023CDE9032302A904220648059376
:10B2000001F056FF0D20FFF715FF2420FFF712FF76
:10B2100007B05DF804FB00BF346304002DE9F0477C
:10B2200098B01E462A23344D8DF8073003128DF84E
:10B2300008308DF80900130A0D2000248DF80A301B
:10B2400088460DF1070A4FF001098DF80B2004A97B
:10B25000FFF7E0FE04222846CDE90594CDF810A0C2
:10B26000079401F025FF0D20FFF7E4FE02AF042252
:10B2700008A92846CDE9092408970B9401F018FF86
:10B280002B238DF807304FEA28238DF808300D2046
:10B29000330A8DF80A300CA98DF809808DF80B60FF
:10B2A000FFF7B8FE04222846CDE90CA9CDE90E44EB
:10B2B00001F0FEFE0D20FFF7BDFE10A90422284676
:10B2C000CDE911241097139401F0F2FE2C230D20E8
:10B2D0008DF8073014A9FFF79DFE04222846CDE91A
:10B2E00014A9CDE9164401F0E3FE0D20FFF7A2FEFC
:10B2F00018B0BDE8F08700BF346304002DE9F04FBB
:10B30000861801EB0309B6B2214BDFF888B01FFAAB
:10B3100089F9102209F1FF39013EC3F80C2587B0E5
:10B320001FFA89F3B2B204460F4600B209B2FFF722
:10B3300075FF4FF0A0434FF40052C3F808250025D5
:10B340000DF1060AB44220DB114B1022C3F8082588
:10B3500007B0BDE8F08F109BCDF808A033F815209A
:10B36000ADF8062002230022CDE90332059202A99E
:10B3700004225846013501F09BFE08EB050292B20B
:10B380004A45E8DB0134A4B2DCE7A7EB0508F4E7A3
:10B39000000300503C6304000388502B37B504467B
:10B3A0000D4620D11148124B12491B1ADB081B0411
:10B3B00043F00300019000F0BDFAE2886B89019828
:10B3C0009A4210D1238A082B0DD16B695BB10A49CF
:10B3D00000F0B0FA6B69A08804F11202294603B0AC
:10B3E000BDE83040184703B030BD00BF28E602007A
:10B3F00068E60200448204005E8204007047000098
:10B4000007B5044B0093044A402300F011FC03B03D
:10B410005DF804FB1DB40200BF3100202DE9F843A4
:10B4200088461446B2B10F4B0F4E0325002743F058
:10B430000109224608EB07010020FEF79BFE0744A6
:10B44000241A48B933782BB14FF47A40C847013DEC
:10B4500002D13570BDE8F88301233370002CE8D1A8
:10B46000F8E700BF70820400BE3100207047FEF78D
:10B47000D1BE000008B5FFF7FAFF0448042100F030
:10B480007DFA034B01225A7108BD00BFB8E60200E5
:10B49000442B0020037813F0040216D003F00303BA
:10B4A000012B03D0022B09D0012070470A680088C5
:10B4B0000232C0F3831002440A60F5E70B68428849
:10B4C000023303EB92130B60EEE710467047000067
:10B4D0002DE9F04FDFF81CA187B00F46002304468A
:10B4E000861C0DF1070015468DF80730FCF730FC7F
:10B4F000DAF804203A60DAF8083003F580739B1A12
:10B500000AF21C470AF583690AF21448B3421AD3B7
:10B510000020002D69D004F00F039B0143F00503C8
:10B5200063F30F00DAF80430DAB2033233444AF836
:10B5300022009DF80700CAF80430FCF72DFC01201A
:10B5400007B0BDE8F08F01213846FCF786F8484681
:10B55000FCF79EF84046FCF79BF8DAF808000290EA
:10B56000C0B203300AEB800002A9FFF793FF029BF1
:10B5700030BBDAB20AEB8202D16803919A1C013324
:10B58000DBB20AEB83030292D3F80CB001F00303A1
:10B59000012B22D0022B15D083464046FCF77BF8C6
:10B5A00010B1029BCAF8083059463846FCF755F8E6
:10B5B000DAF80830DAF8042003F580739B1AA5E75F
:10B5C000D8B2CEE7BDF80E30C3F3891303334FEA88
:10B5D0001B4B02EB93030293DFE7BDF80C30C3F380
:10B5E00083134FEA1B4B1344F5E7A40544F0060010
:10B5F00098E700BFD0320020064B074810B5002264
:10B600001A70FCF7B0FA044610B90448FCF758FB6E
:10B61000204610BDD032002014E60200AC820400A7
:10B6200030B50A4C71B10A4A0A49121BD2080023EC
:10B630009A4201D1002030BD31F82350854202D01A
:10B640000133F5E7034654F83300F4E728E6020037
:10B65000B8E60200FC2A0020094B013903EBC000C8
:10B66000032909D8DFE801F00A0204060420704724
:10B67000007970474079704700207047022070477A
:10B6800028E6020070470000034BD3E90130C31ADB
:10B6900058425841704700BFD03200202DE9F04198
:10B6A00086B0FFF7F1FF0546002840F0ED80774CAB
:10B6B000C4F81804BFF34F8FA3680293DBB20333BF
:10B6C00004EB830002A9FFF7E5FE029B18B1D4F852
:10B6D0001824002A5AD0DAB2991C013304EB8202F2
:10B6E000DBB204EB8303D268DB68049302F003034C
:10B6F000022B0392029154D1BDF80E306448C3F37B
:10B700008917502F3E4628BF502606F1080166F3E0
:10B710008F13C1F30901ADF80E30FCF73CFA054672
:10B72000002800F09C80FCF765FA0023082203A99A
:10B730002846FCF771FA0299CB43DBB20133C9B258
:10B740000331B6EB830F4FEA830204EB810125D965
:10B750005FFA82F80823A6EB08062846FCF75CFA95
:10B76000F6B208F108034B4903F0FC0332462846C1
:10B77000FCF752FA029B033703EB97070297D4F8C2
:10B780001834002B43D1D4F8106453E062689A4215
:10B7900094D8A260284606B0BDE8F081082332465E
:10B7A000E5E7012B5BD1BDF80C303948C3F38311B9
:10B7B000062928BF062161F38913023101F00F0128
:10B7C0008900ADF80C30FCF7E6F90546002846D0B4
:10B7D000FCF710FA0023082203A92846FCF71CFAFC
:10B7E0000026BDF80C20C2F38312B300964203F189
:10B7F0000803C4D202994A1CC9B20331029204EB75
:10B80000810104222846FCF707FA0136E9E72846B9
:10B81000FCF7F4F9FFF738FF80F00100C5B2B9E793
:10B82000F3685B7923B1336829461B683046984733
:10B83000F3681E68002EF3D12846FCF7DFF90DF1FE
:10B8400007008DF80760FCF783FAD4F818340BB9B9
:10B85000029BA3609DF80700FCF79EFADAE7D4F894
:10B86000104454B90C4B0D480D49C01AC0080004CF
:10B8700040F0020000F05EF8CCE7236820469B68A9
:10B880009847E3681C68ECE7002583E7D032002086
:10B8900014E60200DC32002028E6020068E602001E
:10B8A000948204002DE9F34704460E46924601A90E
:10B8B000012218469946FFF70BFE1C4F10B3019D5D
:10B8C0004FF00008AA1CC84508EB020125D1184812
:10B8D0000021FBF787FE80F31000000440EA1440CB
:10B8E000E4006B1C04F03804DBB2EDB244F0010458
:10B8F00007EB8303033544EA881444EA8624D860BE
:10B9000047F825403B781BB1FFF7C8FE0028FBD164
:10B91000FFF7B8FE02B0BDE8F087C9B207EB8101BE
:10B920005AF82830CB6008F10108CCE7D03200206B
:10B93000EC36002000231A46FFF7B4BF07B50123F9
:10B94000019201AAFFF7AEFF03B05DF804FB07B553
:10B95000CDE9002302236A46FFF7A4FF03B05DF898
:10B9600004FB1FB5CDE90123069B039301AA032322
:10B97000FFF798FF05B05DF804FB000030B50F4CF1
:10B98000D4F8102403460020114631B9D968087153
:10B990004AB9C4F810340A6030BDC9680D798542CF
:10B9A00006D00968F1E7D26814680C601360F3E709
:10B9B00001300A28E8D14FF0FF30EDE7D032002007
:10B9C00038B5084B0125D3F810441D7004B938BDB3
:10B9D000E3685D71236820465B689847E3681C68EC
:10B9E000F4E700BFD032002030B5C38885B00446EC
:10B9F0000D4633B1144A00921449154A2846FBF704
:10BA0000ADFE217A05291DD0637A4BB1A088FFF7DE
:10BA100023FE104B104953F820202846FBF79EFECA
:10BA2000227A0E4BA08853F8222003920021FFF7C0
:10BA3000F7FD039A0A490346284605B0BDE83040A1
:10BA4000FBF78CBE05B030BDD8820400C082040074
:10BA5000B882040044830400DD820400688304008B
:10BA6000E082040007B503460846197A052911D07B
:10BA70005B7A2BB1094A0A490190FBF76FFE0198E6
:10BA800008490190FBF76AFE019803B05DF804EBEA
:10BA9000FBF759BE002AF8D0F2E700BFD8820400B5
:10BAA000DD820400D58204002DE9F04385B01F46F5
:10BAB0000C9D002395F80C902B7306460C4690467F
:10BAC00029463846FFF790FFB8F1060F09D8DFE89E
:10BAD00008F00412181F2833400031462846FBF7AF
:10BAE0003DFE002229463846FFF7BCFF85F80C9042
:10BAF00005B0BDE8F083226831462846FBF72EFEEC
:10BB0000EFE7D4E9002331462846FBF727FEE8E7B4
:10BB1000A36800933146D4E900232846FBF71EFEB4
:10BB2000DFE7E3680193A36800933146D4E900237B
:10BB30002846FBF713FED4E723690293E3680193D9
:10BB4000A36800933146D4E900232846FBF706FE9C
:10BB5000C7E76369039323690293E3680193A368CA
:10BB600000933146D4E900232846FBF7F7FDB8E7F8
:10BB700008292DE9F74F80460E4617461C463DD84A
:10BB800000251B7B2573214610460193FFF72CFFF0
:10BB9000DFF88CA0DFF88CB0AE4232D918F805205F
:10BBA00059462046FBF7DAFD0135082DF4D11B4933
:10BBB000DFF874A0DFF874B02046FBF7CFFD4FF03C
:10BBC00000094E4524D918F809507E2D1ED8284664
:10BBD00002F0FEF8002814BF2A462E2259462046BD
:10BBE000FBF7BCFD09F10109B9F1080FE9D1012208
:10BBF00021463846FFF736FF019B237303B0BDE8AB
:10BC0000F08F51462046FBF7A9FDCDE72E22E5E750
:10BC100051462046FBF7A2FDE4E700BFF482040092
:10BC2000F0820400EA820400F2820400F68204003A
:10BC3000F0B595B01D46164608460C46FBF7DAFFF0
:10BC40001A9B0D93CDE9086500252B46082205A90E
:10BC500020460A958DF82C500C95FBF7E7FF079BC3
:10BC60000293069B03939DF814308DF8115003F056
:10BC70000302012A1DD1BDF81420059DC3F3C203A0
:10BC8000C2F383168DF81030B20008230EA92046A7
:10BC9000FBF7CCFFC5F3952508AB0093324602AB0A
:10BCA0000EA92846FFF700FF2046FBF7A7FF15B0B7
:10BCB000F0BD022AF8D1BDF81650C3F3C203C5F394
:10BCC00089158DF810300827082D2E4628BF082624
:10BCD0003B4632460EA92046FBF7A8FFAD1B08AB3A
:10BCE00002AA31460EA83744FFF742FF002DEBD1E0
:10BCF000DAE70000034B1A8882420CBF1846002086
:10BD0000704700BFA4370020024B9B6903B118475E
:10BD1000704700BF8837002037B50B46497A0F4A75
:10BD200079B9D2E901141D7A0246002D18BF2146C7
:10BD30005868FCF7A1FA78B103B0BDE83040FFF7CE
:10BD4000E3BF00211972536933B10122ADF8060037
:10BD50008DF8042001A8984703B030BD8837002033
:10BD60004B8802889A4212D842889A420FD3808820
:10BD70008B8840F2F311884294BF021A421A9A4209
:10BD800005D80844984234BF0020012070470020A5
:10BD9000704700000388122B70B5014659D004D8B3
:10BDA000102B1ED0112B44D070BD502BFCD12F4B2B
:10BDB000C288DB899A42F7D1038A022BF4D18688A4
:10BDC0003046FFF797FF05460028EDD001F112003D
:10BDD00000F050F838BB6868FCF79AFA0028E3D006
:10BDE00009E0C37B012BDFD14FF6FF70FFF782FF25
:10BDF000054620B90420BDE87040FFF785BF1C4A06
:10BE00008E880680002303721368C0F80A305368D6
:10BE1000C0F80E3010310A30FFF7A2FF134B6872E2
:10BE2000DB89002BC0D129463046BDE87040FFF7C2
:10BE300073BF8088FFF75EFF04460028B4D04068D7
:10BE4000FCF766FA08B1FFF75FFF4FF6FF73238038
:10BE5000AAE786883046FFF74DFF05460028A3D0A5
:10BE600008310A30FFF77CFF6872DCE78837002072
:10BE7000B8370020008800F00100704790DF70475D
:10BE8000A5DF7047B5DF70477FB50023ADF8081018
:10BE9000ADF80A106A4602A90646ADF80C30ADF8B6
:10BEA0000E300093ADF80430FFF7E8FF054600B30D
:10BEB000114B124CE41AE408FBF740FF240444F051
:10BEC000010403460E4932462046FFF740FDBDF807
:10BED0000020BDF8023052EA030103D00949204690
:10BEE000FFF735FDBDF804201AB107492046FFF7DA
:10BEF00025FD284604B070BD28E6020080E6020059
:10BF00007C830400C68304000584040013B5034643
:10BF100080880C46B0B91A88242A7CD014D8112AFB
:10BF200056D0232A00F08780102A3ED0A37A4BB146
:10BF3000E1880020FFF7A4FF002840F082804FF442
:10BF40008073638102B010BD3A2A49D0552AEDD1E1
:10BF5000DB88C988A072172B38BF17238B4228BFF4
:10BF60000B462381FFF78EFF60B1FBF7E7FE3E4BE8
:10BF70003E4902463E481B1ADB081B0443F0010001
:10BF8000FFF7DCFCE27A002AD0D12369002BCDD068
:10BF900040F67721ADF802202289ADF80010ADF807
:10BFA0000420694620469847C0E7DB7B0979217366
:10BFB000012B08D0022B09D0637B8B42B6D2002024
:10BFC000FFF762FFB2E72388E380F5E76388FBE7CA
:10BFD0001723CB800B8141F61B3348818B81A5E76A
:10BFE0005B89CA88934228BF1346172B0A6938BF5A
:10BFF00017230B8162B1C97A51B140F67721ADF8B0
:10C000000010ADF80200ADF80430694620469047B4
:10C01000002363818AE71A7A0B694A73002B85D063
:10C020004DF67A218DF80500ADF80010ADF802004C
:10C030008DF80420B5E7197A237B994228BF194669
:10C04000BEE711283FF47EAFFBF778FE064B0949A7
:10C05000024607481B1ADB081B0443F0010002B02C
:10C06000BDE81040FFF76ABC80E602005B84040074
:10C0700028E602008A840400B0DF704766DF70475C
:10C0800010B5002104464088FFF7F8FF034608B9C1
:10C09000237210BD112801D10123F9E76368BDE8BF
:10C0A0001040184728B10378DE2B04D141800020CE
:10C0B00070470E20704708207047F0B5054685B0E0
:10C0C0000C46002942D0002840D00B78DE2B3DD111
:10C0D00082884B889A4204D10B7A13B10846FFF745
:10C0E000CFFF2B88112B33D0512B0FD0012B2DD10B
:10C0F0002B7A012B2AD1A9886288914226D1204629
:10C10000237205B0BDE8F040FFF7BABFAE88638880
:10C11000B3421BD1AF79022F18D1AD7B2B1F022B5D
:10C1200014D800211022684601F09FFE052D18BF8B
:10C130004FF4C0736946304618BFADF804308DF82F
:10C140000070FFF799FF08B16368984705B0F0BD2C
:10C150006388AA889A4204BF4FF6FF736380F5E7AD
:10C160000AB1FBF723BAFBF72ABA73B50191019C18
:10C1700006466CB100252C46294601A8FBF729FA92
:10C1800018B106EB440301349D800135142DF3D121
:10C190003046346002B070BD2DE9F04703888488D2
:10C1A000103B8CB005460A2B21D8DFE803F006408F
:10C1B00020202020202020654700DFF8E880D8F8E4
:10C1C0000830DB430093D8F804106846FBF739FACF
:10C1D000009901A8FFF7C9FF0DF108090027019B8D
:10C1E0009F4207D3132C12D90420FBF7F1F80CB0AF
:10C1F000BDE8F08739F802AB00260136514608EB5E
:10C200008600FBF7DCF91E2EF7D10137E7E71F4860
:10C210002146FBF7CBF91E482146FBF7C7F9EB7B1C
:10C22000022BE4D11B482146FBF7C0F9DFE7174892
:10C2300021460CB0BDE8F047FBF7C1B9027A1648B9
:10C240003F2A4FEA1215214694BF00220122FFF730
:10C2500087FF022D94BF0022012210482146FFF7DC
:10C260007FFF012D0E4894BF0022012221460CB011
:10C27000BDE8F047FFF774BF037A002BB7D1427ACD
:10C280000548C2F3C0022146F1E700BFC8370020CD
:10C29000C4370020CC370020D8370020D437002006
:10C2A000D0370020C037002038B5074C051E04F1F8
:10C2B000080318BF1C4623682BB11A6822605B680C
:10C2C00028469847F7E738BD4438002020B9054B89
:10C2D00001225A70FFF7E8BF012802D1014A90708D
:10C2E000F8E770473C38002020B9034B01225A7010
:10C2F000FFF7DABF704700BF3C38002038B50E4C5E
:10C300002378B3B90D486360A3602361E36000F054
:10C3100075F80546FEF77EF808B900F07BF80123B2
:10C320002370074BD3F800340BB10123A3702846C8
:10C3300038BD8525F5E700BF3C380020CDC202009E
:10C340000000014037B50D4C00230DF107008DF8BA
:10C350000730FBF7FDFCE368013BE360E36833B9BA
:10C36000074BD3F8005415B900F066F8A5709DF896
:10C370000700FBF711FD03B030BD00BF3C380020C3
:10C3800000000140012813B50CD0032820D038B993
:10C39000134B0122C3F88020BFF34F8FBFF36F8F81
:10C3A00002B010BD0F4C00230DF107008DF80730CF
:10C3B000FBF7CEFC23780BB9FFF7A0FFE3689DF8ED
:10C3C00007000133E3600123A370FBF7E5FCE7E717
:10C3D00000F020F802B0BDE81040FFF7B3BF00BF87
:10C3E00000E100E03C38002000F18040002382B0F2
:10C3F000036003680193019B02B07047044A1379FC
:10C4000023B90121106011711846704785207047CB
:10C4100050380020074B1A68D20704D4C02283F892
:10C42000002301221A604FF080430122C3F818252F
:10C43000704700BF00E100E04FF0804208B50223E2
:10C44000C2F808334FF48270FFF7CEFF0123D360A8
:10C45000D2F81834DB03FBD408BD00004FF0804253
:10C4600010B5D2F8003153B14FF48070FFF7BCFF24
:10C470000123C2F808330B4B00201B6898474FF08C
:10C480008042D2F8043163B14FF48270FFF7ACFF01
:10C490000223C2F80833034BBDE810401B6801209B
:10C4A000184710BD5038002000F1804000F5C04012
:10C4B000002382B0036003680193019B02B07047C0
:10C4C00003681F2B83BF03F01F03036001484FF075
:10C4D000A04070470003005007B5019001A8FFF786
:10C4E000EFFF019B00EB8300D0F8003723F44033CB
:10C4F000C0F80037D0F8003743EA0141C0F8001710
:10C5000003B05DF804FB00002DE9FF470024CDE9EE
:10C510000244584D4FF48072012102F1804303F52B
:10C52000C04390B21B68012B06D1D5F804330B42EF
:10C5300002D0FFF7B9FF0C430432B2F5907F4FEA07
:10C540004101EAD14B4BD3F87C31012B11D14FF48F
:10C55000BE70FFF7A9FF4FF0A04344F00044D3F8AA
:10C5600020250292C3F82025D3F820280392C3F88F
:10C570002028E3B2D3B1404F00250126344210D029
:10C58000AB0003F1804303F5C043D3F81005D3F8A3
:10C59000101557F8253023B1C1F30141C0F3052030
:10C5A00098470135082D4FEA4606E7D1002C59DAA5
:10C5B000314D324C324E4FF00008012716F9013B45
:10C5C0005A1C3CD0C3F3C20104A801445FFA83F9AA
:10C5D00011F8081C03F03F0203F0070307FA03F306
:10C5E00019422CD001A80192FFF76AFF019B03F5C5
:10C5F000E07350F82330C3F3014ABAF1020F0CBFC5
:10C60000032102211046FFF767FF01A80192FFF7FF
:10C6100057FF019B07FA03F3C0F82035AB1893F9D5
:10C62000303055F8233053B14FEA9911032904D023
:10C63000BAF1020F19D1012901D11046984708F12A
:10C640000108B8F1040FB9D14FF0A043D3F8202569
:10C650000292C3F82025D4F820350393C4F820357E
:10C660001343A7D104B0BDE8F087BAF1030FE6D1B8
:10C670000229E1E700600040583800200003005024
:10C68000B2380020014B1B68184700BFC03800209B
:10C690000E4B984237B50C4602D0002003B030BD97
:10C6A00000230DF107008DF80730FBF751FB084B15
:10C6B0001D7915B901221C601A719DF80700FBF75E
:10C6C0006BFB002DE9D01120E8E700BF00200040FF
:10C6D000C0380020034B984201BF034B00221A6070
:10C6E0001A71704700200040C03800201FB5037841
:10C6F0008DF800308388ADF8043083688DF80630FB
:10C70000C3688DF80730036902934369054A0393B0
:10C71000054B684653F8213052F82110984705B070
:10C720005DF804FBC8380020D0380020024B4FF4DD
:10C73000807043F001031847E08404001F2886BF7F
:10C74000054A00F01F004FF0A042012303FA00F059
:10C75000C2F80805704700BF000300502DE9F047FC
:10C76000154690F80080394A42F82850384A42F875
:10C7700028304B7B06460C46A3B30868DFF8D890F8
:10C780004FF0A04100F5E07340F20C6241F8232025
:10C79000636803F5E073002741F82320FFF7CEFF1D
:10C7A0006068FFF7CBFF236803F5E07340F20D628A
:10C7B00041F82320636803F5E0734FF0010A41F864
:10C7C0002320FFF7B3FF63681F2B8ABF4A464FF051
:10C7D000A04203F01F03D2F8102522FA03F3DB076F
:10C7E0000BD507BB002D1B4A434608BF2A462146EE
:10C7F000301DBDE8F04700F0C7BE23681F2B86BF81
:10C8000003F01F034A464FF0A0420AFA03F3C2F8AE
:10C810000C35FFF78BFF01372068FFF78FFFFFF71D
:10C8200085FF092FCFD163681F2B86BF0A4903F00C
:10C830001F034FF0A041012202FA03F3C1F80C35A7
:10C84000FFF774FF6068FFF779FFCBE7D03800206F
:10C85000C8380020EDC60200000300501F2886BF24
:10C8600000F01F00044B4FF0A04300F5E0700322DE
:10C8700043F82020704700BF000300501F2886BFE8
:10C8800000F01F00044B4FF0A04300F5E0700022C1
:10C8900043F82020704700BF000300502DE9F0410D
:10C8A000DFF8048198F804300446002B75D18579AF
:10C8B00090F807E090F808C0467A877A227CC06832
:10C8C00075B9012E03D1012A0AD107204EE0022EAC
:10C8D00006D1082A04D840F25513D340DB07F4D41C
:10C8E0002F4BC3F80455C3F824E5C3F820C5C3F89B
:10C8F0001C65C3F82875C3F81825002838D1C3F87B
:10C9000010052078002D39D1FFF7A8FF6078FFF7D8
:10C91000A5FFA778FF2F37D03846FFF79FFFE678AF
:10C92000FF2E34D03046FFF799FF2579FF2D31D007
:10C930002846FFF7A3FF1A4B62782078C3F86405F6
:10C94000C3F86825C3F86075C3F87065C3F86C5503
:10C950006379144AC8F800105B01DBB282F8253312
:10C9600020235360012388F804300020BDE8F081C3
:10C970000122C3F81405C3F81025C2E7FFF77EFFB4
:10C980006078FFF77BFFC4E74FF0FF37C7E74FF052
:10C99000FF36CAE74FF0FF35CDE70820E6E700BFD6
:10C9A0000050024000E100E0D83800207FB5354A51
:10C9B0001379012B0E4660D1036823B103F0604167
:10C9C000B1F1005F5BD1416821B101F06041B1F18B
:10C9D000005F54D15179003B18BF012363F300017C
:10C9E00051714368D680191E537918BF012123F075
:10C9F0001E0343EA4103537103C8234B83E803003A
:10CA0000D2E90254214B0020C2E90400C3F850656A
:10CA1000C3F838552D1A18BF0125C3F80855C3F8B7
:10CA20004045241A18BF0124C3F80C4502210124F3
:10CA3000C3F800451171C3F80401D3F80411039140
:10CA40000399C3F81401D3F8141102910299C3F8A1
:10CA50000801D3F8081101910199517901FA04F202
:10CA6000090102F0020201F020010A4342F004022F
:10CA7000C3F804231C6004B070BD0820FBE710203D
:10CA8000F9E700BFD8380020E0380020005002400D
:10CA9000064B5A796FF304125A71054B2222C3F8E0
:10CAA000082301225A609A63DA637047D83800205D
:10CAB00000500240F0B53F4B3F4CD3F8142185B0F5
:10CAC0008AB10022C3F81421D3F814310093009BDB
:10CAD000637943F0080303F01202122A637104BF62
